{"abi":[{"type":"function","name":"FUNDING_GOAL","inputs":[],"outputs":[{"name":"","type":"uint256","internalType":"uint256"}],"stateMutability":"view"},{"type":"function","name":"FUNDING_SUPPLY","inputs":[],"outputs":[{"name":"","type":"uint256","internalType":"uint256"}],"stateMutability":"view"},{"type":"function","name":"calculateBuyReturn","inputs":[{"name":"ethAmount","type":"uint256","internalType":"uint256"}],"outputs":[{"name":"","type":"uint256","internalType":"uint256"}],"stateMutability":"pure"},{"type":"function","name":"calculateSellReturn","inputs":[{"name":"tokenAmount","type":"uint256","internalType":"uint256"}],"outputs":[{"name":"","type":"uint256","internalType":"uint256"}],"stateMutability":"pure"}],"bytecode":{"object":"0x6080806040523461001657610179908161001c8239f35b600080fdfe608080604052600436101561001357600080fd5b600090813560e01c90816342e49d5a1461011c57508063828f3a9c146100d3578063bc3c39cb146100765763bfe608561461004d57600080fd5b3461007357806003193601126100735760206040516b0295be96e6406697200000008152f35b80fd5b5034610073576020366003190112610073576801158e460913d00000600435818102929181159184041417156100bf576020826b0295be96e64066972000000060405191048152f35b634e487b7160e01b81526011600452602490fd5b5034610073576020366003190112610073576b0295be96e640669720000000600435818102929181159184041417156100bf576020826801158e460913d0000060405191048152f35b90503461013f578160031936011261013f57806801158e460913d0000060209252f35b5080fdfea26469706673582212209cea97336b80336e6892b64af3c686bd677fc69efbb41caaa3cd85d27cdaf57c64736f6c63430008140033","linkReferences":{}},"methodIdentifiers":{"FUNDING_GOAL()":"42e49d5a","FUNDING_SUPPLY()":"bfe60856","calculateBuyReturn(uint256)":"828f3a9c","calculateSellReturn(uint256)":"bc3c39cb"},"id":39}