{"abi":[{"type":"constructor","inputs":[{"name":"_a","type":"uint256","internalType":"uint256"},{"name":"_b","type":"uint256","internalType":"uint256"}],"stateMutability":"nonpayable"},{"type":"function","name":"A","inputs":[],"outputs":[{"name":"","type":"uint256","internalType":"uint256"}],"stateMutability":"view"},{"type":"function","name":"B","inputs":[],"outputs":[{"name":"","type":"uint256","internalType":"uint256"}],"stateMutability":"view"},{"type":"function","name":"getAmountOut","inputs":[{"name":"x0","type":"uint256","internalType":"uint256"},{"name":"deltaY","type":"uint256","internalType":"uint256"}],"outputs":[{"name":"deltaX","type":"uint256","internalType":"uint256"}],"stateMutability":"view"},{"type":"function","name":"getFundsReceived","inputs":[{"name":"x0","type":"uint256","internalType":"uint256"},{"name":"deltaX","type":"uint256","internalType":"uint256"}],"outputs":[{"name":"deltaY","type":"uint256","internalType":"uint256"}],"stateMutability":"view"}],"bytecode":{"object":"0x60c03461008657601f6107b338819003918201601f19168301916001600160401b0383118484101761008b57808492604094855283398101031261008657602081519101519060805260a05260405161071190816100a2823960805181818160670152818161011101526101a0015260a05181818160a20152818161016c01526104570152f35b600080fd5b634e487b7160e01b600052604160045260246000fdfe6080806040526004908136101561001557600080fd5b600091823560e01c91826332e7c5bf14610440575081637cabb7cf14610158578163901ce73e1461008d575063f446c1d01461005057600080fd5b3461008a578060031936011261008a5760206040517f00000000000000000000000000000000000000000000000000000000000000008152f35b80fd5b9050346101545761009d3661047a565b9290917f000000000000000000000000000000000000000000000000000000000000000093808410610150576100e06100eb6100f1926100e56100e0888a6104b8565b6104e8565b96610495565b866104b8565b9282848203941281851281169185139015161761013d57602061013585857f000000000000000000000000000000000000000000000000000000000000000061064c565b604051908152f35b634e487b7160e01b825260119052602490fd5b8280fd5b5080fd5b823461008a576101673661047a565b9190927f0000000000000000000000000000000000000000000000000000000000000000926101c561019c6100e087876104b8565b91857f00000000000000000000000000000000000000000000000000000000000000009161064c565b810180911161042d57806fffffffffffffffffffffffffffffffff1060071b81811c67ffffffffffffffff1060061b1781811c63ffffffff1060051b1781811c61ffff10831b1781811c60ff1060031b1783821315610421577ff8f9f9faf9fdfafbf9fdfcfdfafbfcfef9fafdfafcfcfbfefafafcfbffffffff6f8421084210842108cc6318c6db6d54be83831c1c601f161a1890811b609f1c6060816c465772b2bbbb5f824b15207a30018202811d6d0388eaa27412d5aca026815d636e018202811d6d0df99ac502031bf953eff472fdcc018202811d6d13cdffb29d51d99322bdff5f2211018202811d6d0a0f742023def783a307a986912e018202811d6d01920d8043ca89b5239253284e42018202811d6c0b7a86d7375468fac667a0a5270191780a09507084cc699bb0e71ea869ffffffffffffffffffffffff19916cb9a025d814b29c212b8b1a07cd1990826d02384773bdf1ac5676facced609019816c8c3f38e95a6b1ff2ab1c3b343619818080806c29508e458543d8aa4df2abee780102871d6d0139601a2efabe717e604cbb48940102861d6d02247f7a7b6594320649aa03aba10102851d0102831d0102901d01020105711340daa0d5f769dba1915cef59f0815a55060290609f037d0267a36c0c95b3975ab3ee5b203a7614a3f75373f047d803ae7b6687f2b302017d57115e47018c7177eebf7cd370a3356a1b7863008a5ae8028c72b88642840160ae1d917812725dd1d243aba0e75fe645cc4873f9e65afe688c928e1f2283108402156104165760206101358686670de0b6b3a7640000870204610495565b637c5f487d9052601cfd5b82631615e6388552601cfd5b634e487b7160e01b835260118252602483fd5b8390346101545781600319360112610154576020907f00000000000000000000000000000000000000000000000000000000000000008152f35b6040906003190112610490576004359060243590565b600080fd5b919082039182116104a257565b634e487b7160e01b600052601160045260246000fd5b90806000190482116104d4575b670de0b6b3a764000091020490565b80156104c55763bac65e5b6000526004601cfd5b68023f2fa8f6da5b9d281981131561064657680755bf798b4a1bf1e5811215610638576503782dace9d990604e1b0574029d9dc38563c32e5c2f6dc192ee70ef65f9978af36bb17217f7d1cf79abc9e3b398916060906001605f1b8482841b0501821d9384029003806c10fe68e7fd37d0007b713f7650810102821d906e0587f503bb6ea29d25fcb7401964506e05180bb14799ab47a8a8cb2a527d57826e02c72388d9f74f51a9331fed693f1419816db1bbb201f443cf962f1a1d3db4a5816d1a521255e34f6a5061b25ef1c9c319816d0277594991cfc85f6e2461837cd9816c240c330e9fb2d9cbaf0fd5aafb198101028d1d01028b1d0102891d0102871d0102851d01936d360d7aeea093263ecc6e0ecb291760621b936d02d16720577bd19bf614176fe9ea810190846d01d3967ed30fc4f89c02bab570811991010102901d01020105029060c3031c90565b63a37bfec96000526004601cfd5b50600090565b82828202928181848604148415170215610667575050500490565b60001981840984811085019003920990600092848403851694828111156106ce578560019104600281600302811880830282030280830282030280830282030280830282030280830282030280920290030295808086850304960304019211900302170290565b63ae47f70285526004601cfdfea2646970667358221220c4e4d696cec8e5f5f4a9b66789f86e5067ba391ef9890ad879b76758086bca1a64736f6c63430008140033","linkReferences":{}},"methodIdentifiers":{"A()":"f446c1d0","B()":"32e7c5bf","getAmountOut(uint256,uint256)":"7cabb7cf","getFundsReceived(uint256,uint256)":"901ce73e"},"id":37}