{"abi":[{"type":"function","name":"allowance","inputs":[{"name":"owner","type":"address","internalType":"address"},{"name":"spender","type":"address","internalType":"address"}],"outputs":[{"name":"","type":"uint256","internalType":"uint256"}],"stateMutability":"view"},{"type":"function","name":"approve","inputs":[{"name":"spender","type":"address","internalType":"address"},{"name":"value","type":"uint256","internalType":"uint256"}],"outputs":[{"name":"","type":"bool","internalType":"bool"}],"stateMutability":"nonpayable"},{"type":"function","name":"balanceOf","inputs":[{"name":"account","type":"address","internalType":"address"}],"outputs":[{"name":"","type":"uint256","internalType":"uint256"}],"stateMutability":"view"},{"type":"function","name":"burn","inputs":[{"name":"to","type":"address","internalType":"address"},{"name":"amount","type":"uint256","internalType":"uint256"}],"outputs":[],"stateMutability":"nonpayable"},{"type":"function","name":"decimals","inputs":[],"outputs":[{"name":"","type":"uint8","internalType":"uint8"}],"stateMutability":"view"},{"type":"function","name":"initialize","inputs":[{"name":"name","type":"string","internalType":"string"},{"name":"symbol","type":"string","internalType":"string"}],"outputs":[],"stateMutability":"nonpayable"},{"type":"function","name":"mint","inputs":[{"name":"to","type":"address","internalType":"address"},{"name":"amount","type":"uint256","internalType":"uint256"}],"outputs":[],"stateMutability":"nonpayable"},{"type":"function","name":"name","inputs":[],"outputs":[{"name":"","type":"string","internalType":"string"}],"stateMutability":"view"},{"type":"function","name":"owner","inputs":[],"outputs":[{"name":"","type":"address","internalType":"address"}],"stateMutability":"view"},{"type":"function","name":"renounceOwnership","inputs":[],"outputs":[],"stateMutability":"nonpayable"},{"type":"function","name":"symbol","inputs":[],"outputs":[{"name":"","type":"string","internalType":"string"}],"stateMutability":"view"},{"type":"function","name":"totalSupply","inputs":[],"outputs":[{"name":"","type":"uint256","internalType":"uint256"}],"stateMutability":"view"},{"type":"function","name":"transfer","inputs":[{"name":"to","type":"address","internalType":"address"},{"name":"value","type":"uint256","internalType":"uint256"}],"outputs":[{"name":"","type":"bool","internalType":"bool"}],"stateMutability":"nonpayable"},{"type":"function","name":"transferFrom","inputs":[{"name":"from","type":"address","internalType":"address"},{"name":"to","type":"address","internalType":"address"},{"name":"value","type":"uint256","internalType":"uint256"}],"outputs":[{"name":"","type":"bool","internalType":"bool"}],"stateMutability":"nonpayable"},{"type":"function","name":"transferOwnership","inputs":[{"name":"newOwner","type":"address","internalType":"address"}],"outputs":[],"stateMutability":"nonpayable"},{"type":"event","name":"Approval","inputs":[{"name":"owner","type":"address","indexed":true,"internalType":"address"},{"name":"spender","type":"address","indexed":true,"internalType":"address"},{"name":"value","type":"uint256","indexed":false,"internalType":"uint256"}],"anonymous":false},{"type":"event","name":"Initialized","inputs":[{"name":"version","type":"uint64","indexed":false,"internalType":"uint64"}],"anonymous":false},{"type":"event","name":"OwnershipTransferred","inputs":[{"name":"previousOwner","type":"address","indexed":true,"internalType":"address"},{"name":"newOwner","type":"address","indexed":true,"internalType":"address"}],"anonymous":false},{"type":"event","name":"Transfer","inputs":[{"name":"from","type":"address","indexed":true,"internalType":"address"},{"name":"to","type":"address","indexed":true,"internalType":"address"},{"name":"value","type":"uint256","indexed":false,"internalType":"uint256"}],"anonymous":false},{"type":"error","name":"ERC20InsufficientAllowance","inputs":[{"name":"spender","type":"address","internalType":"address"},{"name":"allowance","type":"uint256","internalType":"uint256"},{"name":"needed","type":"uint256","internalType":"uint256"}]},{"type":"error","name":"ERC20InsufficientBalance","inputs":[{"name":"sender","type":"address","internalType":"address"},{"name":"balance","type":"uint256","internalType":"uint256"},{"name":"needed","type":"uint256","internalType":"uint256"}]},{"type":"error","name":"ERC20InvalidApprover","inputs":[{"name":"approver","type":"address","internalType":"address"}]},{"type":"error","name":"ERC20InvalidReceiver","inputs":[{"name":"receiver","type":"address","internalType":"address"}]},{"type":"error","name":"ERC20InvalidSender","inputs":[{"name":"sender","type":"address","internalType":"address"}]},{"type":"error","name":"ERC20InvalidSpender","inputs":[{"name":"spender","type":"address","internalType":"address"}]},{"type":"error","name":"InvalidInitialization","inputs":[]},{"type":"error","name":"NotInitializing","inputs":[]},{"type":"error","name":"OwnableInvalidOwner","inputs":[{"name":"owner","type":"address","internalType":"address"}]},{"type":"error","name":"OwnableUnauthorizedAccount","inputs":[{"name":"account","type":"address","internalType":"address"}]}],"bytecode":{"object":"0x608080604052346100165761105c908161001c8239f35b600080fdfe60806040908082526004918236101561001757600080fd5b600092833560e01c92836306fdde0314610b9d57508263095ea7b314610af357826318160ddd14610ab557826323b872dd146109c4578263313ce567146109a857826340c10f19146108cc5782634cd88b761461046a57826370a0823114610425578263715018a6146103bb5782638da5cb5b1461038557826395d89b41146102815782639dc29fac1461017757508163a9059cbb14610146578163dd62ed3e146100fb575063f2fde38b146100cc57600080fd5b346100f85760203660031901126100f8576100f56100e8610cd7565b6100f0610d97565b610dd0565b80f35b80fd5b90503461014257806003193601126101425780602092610119610cd7565b61012a610124610cf2565b91610e7e565b6001600160a01b039091168252845220549051908152f35b5080fd5b905034610142578060031936011261014257602090610170610166610cd7565b6024359033610eb7565b5160018152f35b839034610142578260031936011261014257610191610cd7565b906024359061019e610d97565b6001600160a01b03831692831561026a57838552600080516020610fe783398151915290816020528686205492848410610236575050918495816020937fddf252ad1be2c89b69c2b068fc378daa952ba7f163c4a11628f55a4df523b3ef95878952855203818720557f52c63247e1f47db19d5ce0460030c497f067ca4cebf71ba98eeadabe20bace0282815403905551908152a380f35b875163391434e360e21b81526001600160a01b03909216908201908152602081018490526040810185905281906060010390fd5b8551634b637e8f60e11b8152808301869052602490fd5b838234610142578160031936011261014257805190827f52c63247e1f47db19d5ce0460030c497f067ca4cebf71ba98eeadabe20bace04908154906102c582610e44565b8086529260019280841690811561035a57506001146102fe575b6102fa86866102f0828b0383610d08565b5191829182610c8e565b0390f35b815294507f46a2803e59a4de4e7a4c574b1243f25977ac4c77d5a1a4a609b5394cebb4a2aa5b828610610342575050506102f08260206102fa9582010194866102df565b80546020878701810191909152909501948101610324565b90506102fa9750869350602092506102f094915060ff191682840152151560051b82010194866102df565b8382346101425781600319360112610142576000805160206110078339815191525490516001600160a01b039091168152602090f35b83346100f857806003193601126100f8576103d4610d97565b60008051602061100783398151915280546001600160a01b0319811690915581906001600160a01b03167f8be0079c531659141344cd1fd0a4f28419497f9722a3daafe3b4186f6b6457e08280a380f35b8382346101425760203660031901126101425760209181906001600160a01b0361044d610cd7565b168152600080516020610fe7833981519152845220549051908152f35b909150346108c857816003193601126108c85767ffffffffffffffff9080358281116108c45761049d9036908301610d40565b906024358381116108c0576104b59036908301610d40565b7ff0c57e16840df040f15088dc2f81fe391c3923bec73e23a9662efc9c229c6a009384549360ff85881c161593828616958615806108b9575b600180981490816108af575b1590816108a6575b506108975767ffffffffffffffff1981168717885585610878575b50610526610fa5565b61052e610fa5565b8151838111610865577f52c63247e1f47db19d5ce0460030c497f067ca4cebf71ba98eeadabe20bace0390806105648354610e44565b94601f958681116107f5575b506020908d878411600114610778579261076d575b5050600019600383901b1c191690881b1790555b835192831161075a575081907f52c63247e1f47db19d5ce0460030c497f067ca4cebf71ba98eeadabe20bace04936105d18554610e44565b8281116106eb575b50602091831160011461066e578992610663575b5050600019600383901b1c191690841b1790555b610609610fa5565b610611610fa5565b61061a33610dd0565b610622578380f35b7fc7f505b2f371ae2175ee4913f4499e1f2633a7b5936321eed1cdaeb6115181d29260209268ff000000000000000019815416905551908152a13880808380f35b0151905038806105ed565b848a528693507f46a2803e59a4de4e7a4c574b1243f25977ac4c77d5a1a4a609b5394cebb4a2aa9190601f1984168b5b8181106106d3575084116106ba575b505050811b019055610601565b015160001960f88460031b161c191690553880806106ad565b8284015185558996909401936020938401930161069e565b90919250848a527f46a2803e59a4de4e7a4c574b1243f25977ac4c77d5a1a4a609b5394cebb4a2aa8380860160051c82019260208710610751575b9186958a929594930160051c01915b8281106107435750506105d9565b8c8155869550899101610735565b92508192610726565b634e487b7160e01b895260419052602488fd5b015190503880610585565b91908b9450601f1984168684527f2ae08a8e29253f69ac5d979a101956ab8f8d9d7ded63fa7a83b16fc47648eab0935b8181106107dd575084116107c4575b505050811b019055610599565b015160001960f88460031b161c191690553880806107b7565b8284015185558d9690940193602093840193016107a8565b909150838d527f2ae08a8e29253f69ac5d979a101956ab8f8d9d7ded63fa7a83b16fc47648eab08680850160051c8201926020861061085c575b859493910160051c909101908b908f5b83821061084e57505050610570565b81558594508c91018f61083f565b9250819261082f565b634e487b7160e01b8a526041825260248afd5b68ffffffffffffffffff1916680100000000000000011787553861051d565b50875163f92ee8a960e01b8152fd5b90501538610502565b303b1591506104fa565b50856104ee565b8580fd5b8480fd5b8280fd5b9150346108c857806003193601126108c8576108e6610cd7565b90602435916108f3610d97565b6001600160a01b0316928315610993577f52c63247e1f47db19d5ce0460030c497f067ca4cebf71ba98eeadabe20bace028054918483018093116109805750927fddf252ad1be2c89b69c2b068fc378daa952ba7f163c4a11628f55a4df523b3ef92602092879555858552600080516020610fe7833981519152835280852082815401905551908152a380f35b634e487b7160e01b875260119052602486fd5b84602492519163ec442f0560e01b8352820152fd5b8382346101425781600319360112610142576020905160128152f35b83346100f85760603660031901126100f8576109de610cd7565b6109e6610cf2565b91604435936109f483610e7e565b338352602052858220549060018201610a16575b602087610170888888610eb7565b858210610a8a576001600160a01b03841615610a73573315610a5c575091610170939186866020989795610a4985610e7e565b3385528a52039120559193948193610a08565b8651634a1406b160e11b8152908101839052602490fd5b865163e602df0560e01b8152908101839052602490fd5b8651637dc7a0d960e11b81523391810191825260208201929092526040810186905281906060010390fd5b8382346101425781600319360112610142576020907f52c63247e1f47db19d5ce0460030c497f067ca4cebf71ba98eeadabe20bace02549051908152f35b909150346108c857816003193601126108c857610b0e610cd7565b602435903315610b86576001600160a01b0316918215610b6f57508083602095610b3733610e7e565b8582528752205582519081527f8c5be1e5ebec7d5bd14f71427d1e84f3dd0314c0f7b2291e5b200ac8c7c3b925843392a35160018152f35b8351634a1406b160e11b8152908101859052602490fd5b835163e602df0560e01b8152808401869052602490fd5b925050346108c857826003193601126108c8577f52c63247e1f47db19d5ce0460030c497f067ca4cebf71ba98eeadabe20bace03805484610bdd82610e44565b80865292600192808416908115610c635750600114610c07576102fa86866102f0828b0383610d08565b815294507f2ae08a8e29253f69ac5d979a101956ab8f8d9d7ded63fa7a83b16fc47648eab05b828610610c4b575050506102f08260206102fa9582010194386102df565b80546020878701810191909152909501948101610c2d565b90506102fa9750869350602092506102f094915060ff191682840152151560051b82010194386102df565b6020808252825181830181905290939260005b828110610cc357505060409293506000838284010152601f8019910116010190565b818101860151848201604001528501610ca1565b600435906001600160a01b0382168203610ced57565b600080fd5b602435906001600160a01b0382168203610ced57565b90601f8019910116810190811067ffffffffffffffff821117610d2a57604052565b634e487b7160e01b600052604160045260246000fd5b81601f82011215610ced5780359067ffffffffffffffff8211610d2a5760405192610d75601f8401601f191660200185610d08565b82845260208383010111610ced57816000926020809301838601378301015290565b600080516020611007833981519152546001600160a01b03163303610db857565b60405163118cdaa760e01b8152336004820152602490fd5b6001600160a01b03908116908115610e2b5760008051602061100783398151915280546001600160a01b031981168417909155167f8be0079c531659141344cd1fd0a4f28419497f9722a3daafe3b4186f6b6457e0600080a3565b604051631e4fbdf760e01b815260006004820152602490fd5b90600182811c92168015610e74575b6020831014610e5e57565b634e487b7160e01b600052602260045260246000fd5b91607f1691610e53565b6001600160a01b031660009081527f52c63247e1f47db19d5ce0460030c497f067ca4cebf71ba98eeadabe20bace016020526040902090565b916001600160a01b03808416928315610f8c5716928315610f7357600090838252600080516020610fe783398151915280602052604083205491848310610f40575082847fddf252ad1be2c89b69c2b068fc378daa952ba7f163c4a11628f55a4df523b3ef959360409388602097528652038282205586815220818154019055604051908152a3565b60405163391434e360e21b81526001600160a01b0391909116600482015260248101929092525060448101839052606490fd5b60405163ec442f0560e01b815260006004820152602490fd5b604051634b637e8f60e11b815260006004820152602490fd5b60ff7ff0c57e16840df040f15088dc2f81fe391c3923bec73e23a9662efc9c229c6a005460401c1615610fd457565b604051631afcd79f60e31b8152600490fdfe52c63247e1f47db19d5ce0460030c497f067ca4cebf71ba98eeadabe20bace009016d09d72d40fdae2fd8ceac6b6234c7706214fd39c1cd1e609a0528c199300a2646970667358221220f384161d294bd5e403cfe0ca91e7bcf3a178355f8b6a1007a48f7c4de518fd4364736f6c63430008140033","linkReferences":{}},"methodIdentifiers":{"allowance(address,address)":"dd62ed3e","approve(address,uint256)":"095ea7b3","balanceOf(address)":"70a08231","burn(address,uint256)":"9dc29fac","decimals()":"313ce567","initialize(string,string)":"4cd88b76","mint(address,uint256)":"40c10f19","name()":"06fdde03","owner()":"8da5cb5b","renounceOwnership()":"715018a6","symbol()":"95d89b41","totalSupply()":"18160ddd","transfer(address,uint256)":"a9059cbb","transferFrom(address,address,uint256)":"23b872dd","transferOwnership(address)":"f2fde38b"},"id":39}