{"abi":[{"type":"function","name":"allowance","inputs":[{"name":"owner","type":"address","internalType":"address"},{"name":"spender","type":"address","internalType":"address"}],"outputs":[{"name":"","type":"uint256","internalType":"uint256"}],"stateMutability":"view"},{"type":"function","name":"approve","inputs":[{"name":"spender","type":"address","internalType":"address"},{"name":"value","type":"uint256","internalType":"uint256"}],"outputs":[{"name":"","type":"bool","internalType":"bool"}],"stateMutability":"nonpayable"},{"type":"function","name":"balanceOf","inputs":[{"name":"account","type":"address","internalType":"address"}],"outputs":[{"name":"","type":"uint256","internalType":"uint256"}],"stateMutability":"view"},{"type":"function","name":"burn","inputs":[{"name":"to","type":"address","internalType":"address"},{"name":"amount","type":"uint256","internalType":"uint256"}],"outputs":[],"stateMutability":"nonpayable"},{"type":"function","name":"decimals","inputs":[],"outputs":[{"name":"","type":"uint8","internalType":"uint8"}],"stateMutability":"view"},{"type":"function","name":"factory","inputs":[],"outputs":[{"name":"","type":"address","internalType":"address"}],"stateMutability":"view"},{"type":"function","name":"getMetadata","inputs":[],"outputs":[{"name":"ipfsHash","type":"string","internalType":"string"},{"name":"description","type":"string","internalType":"string"}],"stateMutability":"view"},{"type":"function","name":"initialize","inputs":[{"name":"name","type":"string","internalType":"string"},{"name":"symbol","type":"string","internalType":"string"},{"name":"ipfsHash","type":"string","internalType":"string"},{"name":"description","type":"string","internalType":"string"}],"outputs":[],"stateMutability":"nonpayable"},{"type":"function","name":"mint","inputs":[{"name":"to","type":"address","internalType":"address"},{"name":"amount","type":"uint256","internalType":"uint256"}],"outputs":[],"stateMutability":"nonpayable"},{"type":"function","name":"name","inputs":[],"outputs":[{"name":"","type":"string","internalType":"string"}],"stateMutability":"view"},{"type":"function","name":"owner","inputs":[],"outputs":[{"name":"","type":"address","internalType":"address"}],"stateMutability":"view"},{"type":"function","name":"renounceOwnership","inputs":[],"outputs":[],"stateMutability":"nonpayable"},{"type":"function","name":"symbol","inputs":[],"outputs":[{"name":"","type":"string","internalType":"string"}],"stateMutability":"view"},{"type":"function","name":"totalSupply","inputs":[],"outputs":[{"name":"","type":"uint256","internalType":"uint256"}],"stateMutability":"view"},{"type":"function","name":"transfer","inputs":[{"name":"to","type":"address","internalType":"address"},{"name":"value","type":"uint256","internalType":"uint256"}],"outputs":[{"name":"","type":"bool","internalType":"bool"}],"stateMutability":"nonpayable"},{"type":"function","name":"transferFrom","inputs":[{"name":"from","type":"address","internalType":"address"},{"name":"to","type":"address","internalType":"address"},{"name":"value","type":"uint256","internalType":"uint256"}],"outputs":[{"name":"","type":"bool","internalType":"bool"}],"stateMutability":"nonpayable"},{"type":"function","name":"transferOwnership","inputs":[{"name":"newOwner","type":"address","internalType":"address"}],"outputs":[],"stateMutability":"nonpayable"},{"type":"function","name":"updateMetadata","inputs":[{"name":"newIpfsHash","type":"string","internalType":"string"},{"name":"newDescription","type":"string","internalType":"string"}],"outputs":[],"stateMutability":"nonpayable"},{"type":"event","name":"Approval","inputs":[{"name":"owner","type":"address","indexed":true,"internalType":"address"},{"name":"spender","type":"address","indexed":true,"internalType":"address"},{"name":"value","type":"uint256","indexed":false,"internalType":"uint256"}],"anonymous":false},{"type":"event","name":"Initialized","inputs":[{"name":"version","type":"uint64","indexed":false,"internalType":"uint64"}],"anonymous":false},{"type":"event","name":"MetadataUpdated","inputs":[{"name":"ipfsHash","type":"string","indexed":false,"internalType":"string"},{"name":"description","type":"string","indexed":false,"internalType":"string"}],"anonymous":false},{"type":"event","name":"OwnershipTransferred","inputs":[{"name":"previousOwner","type":"address","indexed":true,"internalType":"address"},{"name":"newOwner","type":"address","indexed":true,"internalType":"address"}],"anonymous":false},{"type":"event","name":"Transfer","inputs":[{"name":"from","type":"address","indexed":true,"internalType":"address"},{"name":"to","type":"address","indexed":true,"internalType":"address"},{"name":"value","type":"uint256","indexed":false,"internalType":"uint256"}],"anonymous":false},{"type":"error","name":"ERC20InsufficientAllowance","inputs":[{"name":"spender","type":"address","internalType":"address"},{"name":"allowance","type":"uint256","internalType":"uint256"},{"name":"needed","type":"uint256","internalType":"uint256"}]},{"type":"error","name":"ERC20InsufficientBalance","inputs":[{"name":"sender","type":"address","internalType":"address"},{"name":"balance","type":"uint256","internalType":"uint256"},{"name":"needed","type":"uint256","internalType":"uint256"}]},{"type":"error","name":"ERC20InvalidApprover","inputs":[{"name":"approver","type":"address","internalType":"address"}]},{"type":"error","name":"ERC20InvalidReceiver","inputs":[{"name":"receiver","type":"address","internalType":"address"}]},{"type":"error","name":"ERC20InvalidSender","inputs":[{"name":"sender","type":"address","internalType":"address"}]},{"type":"error","name":"ERC20InvalidSpender","inputs":[{"name":"spender","type":"address","internalType":"address"}]},{"type":"error","name":"InvalidInitialization","inputs":[]},{"type":"error","name":"NotFactory","inputs":[]},{"type":"error","name":"NotInitializing","inputs":[]},{"type":"error","name":"OwnableInvalidOwner","inputs":[{"name":"owner","type":"address","internalType":"address"}]},{"type":"error","name":"OwnableUnauthorizedAccount","inputs":[{"name":"account","type":"address","internalType":"address"}]}],"bytecode":{"object":"0x60808060405234610016576117f5908161001c8239f35b600080fdfe608080604052600436101561001357600080fd5b60003560e01c90816306fdde03146112e557508063095ea7b31461126457806318160ddd1461122757806323b872dd14611142578063313ce5671461112657806340c10f191461104057806356ce0e6c14610d8957806370a0823114610d42578063715018a614610cd85780637a5b4f5914610b6d5780638da5cb5b14610b3757806395d89b4114610a515780639dc29fac14610931578063a523d35e146101b8578063a9059cbb14610187578063c45a01551461015e578063dd62ed3e146101155763f2fde38b146100e557600080fd5b346101105760203660031901126101105761010e6101016113e9565b6101096114b4565b6114ed565b005b600080fd5b346101105760403660031901126101105761012e6113e9565b61013f6101396113ff565b9161159b565b9060018060a01b03166000526020526020604060002054604051908152f35b34610110576000366003190112610110576002546040516001600160a01b039091168152602090f35b34610110576040366003190112610110576101ad6101a36113e9565b60243590336115d4565b602060405160018152f35b34610110576080366003190112610110576004356001600160401b038111610110576101e8903690600401611436565b6024356001600160401b03811161011057610207903690600401611436565b906044356001600160401b03811161011057610227903690600401611436565b6064356001600160401b03811161011057610246903690600401611436565b916000805160206117a083398151915254906001600160401b03821680159081610921575b6001149081610917575b15908161090e575b506108fc5760016001600160401b03198316176000805160206117a08339815191525560ff8260401c16156108cf575b6102b5611690565b6102bd611690565b80516001600160401b0381116105df57807f52c63247e1f47db19d5ce0460030c497f067ca4cebf71ba98eeadabe20bace03926102fa8454611561565b601f8111610860575b50602090601f83116001146107dd576000926107d2575b50508160011b916000199060031b1c19161790555b83516001600160401b0381116105df5761035760008051602061170083398151915254611561565b601f8111610758575b50602094601f82116001146106cc579481929394956000926106c1575b50508160011b916000199060031b1c191617600080516020611700833981519152555b6103a8611690565b6103b0611690565b6103b9336114ed565b600280546001600160a01b031916331790558151926001600160401b0384116105df576103e7600054611561565b601f811161066f575b50602093601f81116001146106005780919293946000916105f5575b508160011b916000199060031b1c1916176000555b8051926001600160401b0384116105df5761043d600154611561565b601f811161058c575b50602093601f81116001146105095790816000805160206116c0833981519152939260ff966000916104fe575b508160011b916000199060031b1c1916176001555b6104976040519283928361148c565b0390a160401c16156104a557005b68ff0000000000000000196000805160206117a083398151915254166000805160206117a0833981519152557fc7f505b2f371ae2175ee4913f4499e1f2633a7b5936321eed1cdaeb6115181d2602060405160018152a1005b905083015187610473565b601f19811660016000526000805160206117608339815191529060005b81811061057457509160019160ff97826000805160206116c08339815191529796951061055b575b5050811b01600155610488565b85015160001960f88460031b161c19169055878061054e565b85880151835560209788019760019093019201610526565b6001600052600080516020611760833981519152601f860160051c810191602087106105d5575b601f0160051c01905b8181106105c95750610446565b600081556001016105bc565b90915081906105b3565b634e487b7160e01b600052604160045260246000fd5b90508401518561040c565b6000808052601f19821695600080516020611740833981519152915b8781106106575750826001949596971061063e575b5050811b01600055610421565b86015160001960f88460031b161c191690558580610631565b9091602060018192858a01518155019301910161061c565b60008052600080516020611740833981519152601f860160051c810191602087106106b7575b601f0160051c01905b8181106106ab57506103f0565b6000815560010161069e565b9091508190610695565b01519050858061037d565b601f198216956000805160206117008339815191526000526000805160206117808339815191529160005b88811061074057508360019596979810610727575b505050811b01600080516020611700833981519152556103a0565b015160001960f88460031b161c1916905585808061070c565b919260206001819286850151815501940192016106f7565b600080516020611700833981519152600052601f820160051c6000805160206117808339815191520190602083106107bc575b601f0160051c60008051602061178083398151915201905b8181106107b05750610360565b600081556001016107a3565b600080516020611780833981519152915061078b565b01519050878061031a565b60008581527f2ae08a8e29253f69ac5d979a101956ab8f8d9d7ded63fa7a83b16fc47648eab09350601f198516905b818110610848575090846001959493921061082f575b505050811b01905561032f565b015160001960f88460031b161c19169055878080610822565b9293602060018192878601518155019501930161080c565b909150836000527f2ae08a8e29253f69ac5d979a101956ab8f8d9d7ded63fa7a83b16fc47648eab0601f840160051c810191602085106108c5575b90601f859493920160051c01905b8181106108b65750610303565b600081558493506001016108a9565b909150819061089b565b68ffffffffffffffffff19821668010000000000000001176000805160206117a0833981519152556102ad565b60405163f92ee8a960e01b8152600490fd5b9050158661027d565b303b159150610275565b604084901c60ff1615915061026b565b346101105760403660031901126101105761094a6113e9565b600254602435906001600160a01b039081163303610a3f578216908115610a2657816000526000805160206116e083398151915280602052604060002054938285106109f55750817fddf252ad1be2c89b69c2b068fc378daa952ba7f163c4a11628f55a4df523b3ef9260009560209386885284520360408620557f52c63247e1f47db19d5ce0460030c497f067ca4cebf71ba98eeadabe20bace02818154039055604051908152a3005b60405163391434e360e21b81526001600160a01b039190911660048201526024810185905260448101839052606490fd5b604051634b637e8f60e11b815260006004820152602490fd5b604051631966391b60e11b8152600490fd5b346101105760003660031901126101105760405160006000805160206117008339815191528054610a8181611561565b80855291600191808316908115610b0d5750600114610ac3575b610abf85610aab81870382611415565b6040519182916020835260208301906113a9565b0390f35b600090815292506000805160206117808339815191525b828410610af5575050508101602001610aab82610abf610a9b565b80546020858701810191909152909301928101610ada565b869550610abf96935060209250610aab94915060ff191682840152151560051b8201019293610a9b565b3461011057600036600319011261011057600080516020611720833981519152546040516001600160a01b039091168152602090f35b34610110576000366003190112610110576040516000906000549181610b9284611561565b918282526001948581169081600014610cb95750600114610c6d575b610bba92500382611415565b60405191826000825492610bcd84611561565b80845293818116908115610c4b5750600114610c00575b50610bf192500383611415565b610abf6040519283928361148c565b600081815291506000805160206117608339815191525b848310610c305750610bf1935050810160200185610be4565b81935090816020925483858a01015201910190918592610c17565b905060209250610bf194915060ff191682840152151560051b82010185610be4565b5060008080529091846000805160206117408339815191525b828410610c9f57505050906020610bba92820101610bae565b602092945080548385880101520191019091848493610c86565b60209250610bba94915060ff191682840152151560051b820101610bae565b3461011057600036600319011261011057610cf16114b4565b60008051602061172083398151915280546001600160a01b031981169091556000906001600160a01b03167f8be0079c531659141344cd1fd0a4f28419497f9722a3daafe3b4186f6b6457e08280a3005b34610110576020366003190112610110576001600160a01b03610d636113e9565b166000526000805160206116e08339815191526020526020604060002054604051908152f35b34610110576040366003190112610110576001600160401b0360043581811161011057610dba903690600401611436565b60243582811161011057610dd2903690600401611436565b6002549091906001600160a01b03163303610a3f578051928084116105df57610dfc600054611561565b93601f94858111610ff1575b50806020868211600114610f8157600091610f76575b508160011b916000199060031b1c1916176000555b82519081116105df57600190610e498254611561565b858111610f24575b506020948111600114610ea957806000805160206116c083398151915295600091610e9e575b50600019600383901b1c191690821b1790555b610e996040519283928361148c565b0390a1005b905084015186610e77565b601f19811694826000526000805160206117608339815191529560005b818110610f0e575095829184936000805160206116c08339815191529810610ef5575b5050811b019055610e8a565b86015160001960f88460031b161c191690558680610ee9565b8683015188559684019660209283019201610ec6565b826000526000805160206117608339815191528680840160051c82019260208510610f6d575b0160051c019083905b828110610f61575050610e51565b60008155018390610f53565b92508192610f4a565b905083015186610e1e565b60008080526000805160206117408339815191529250601f198416905b818110610fd957509083600194939210610fc0575b5050811b01600055610e33565b85015160001960f88460031b161c191690558680610fb3565b9192602060018192868a015181550194019201610f9e565b600080526000805160206117408339815191528680840160051c82019260208510611037575b0160051c01905b81811061102b5750610e08565b6000815560010161101e565b92508192611017565b34610110576040366003190112610110576110596113e9565b600254602435916001600160a01b039182163303610a3f571690811561110d577f52c63247e1f47db19d5ce0460030c497f067ca4cebf71ba98eeadabe20bace028054908282018092116110f7576000927fddf252ad1be2c89b69c2b068fc378daa952ba7f163c4a11628f55a4df523b3ef92602092558484526000805160206116e0833981519152825260408420818154019055604051908152a3005b634e487b7160e01b600052601160045260246000fd5b60405163ec442f0560e01b815260006004820152602490fd5b3461011057600036600319011261011057602060405160128152f35b346101105760603660031901126101105761115b6113e9565b6111636113ff565b604435906111708361159b565b33600052602052604060002054926000198403611192575b6101ad93506115d4565b828410611201576001600160a01b038116156111e85733156111cf57826101ad946111bc8361159b565b3360005260205203604060002055611188565b604051634a1406b160e11b815260006004820152602490fd5b60405163e602df0560e01b815260006004820152602490fd5b604051637dc7a0d960e11b81523360048201526024810185905260448101849052606490fd5b346101105760003660031901126101105760207f52c63247e1f47db19d5ce0460030c497f067ca4cebf71ba98eeadabe20bace0254604051908152f35b346101105760403660031901126101105761127d6113e9565b6024359033156111e8576001600160a01b03169081156111cf576112a03361159b565b82600052602052806040600020556040519081527f8c5be1e5ebec7d5bd14f71427d1e84f3dd0314c0f7b2291e5b200ac8c7c3b92560203392a3602060405160018152f35b346101105760003660031901126101105760007f52c63247e1f47db19d5ce0460030c497f067ca4cebf71ba98eeadabe20bace03805461132481611561565b80855291600191808316908115610b0d575060011461134d57610abf85610aab81870382611415565b600090815292507f2ae08a8e29253f69ac5d979a101956ab8f8d9d7ded63fa7a83b16fc47648eab05b828410611391575050508101602001610aab82610abf610a9b565b80546020858701810191909152909301928101611376565b919082519283825260005b8481106113d5575050826000602080949584010152601f8019910116010190565b6020818301810151848301820152016113b4565b600435906001600160a01b038216820361011057565b602435906001600160a01b038216820361011057565b90601f801991011681019081106001600160401b038211176105df57604052565b81601f82011215610110578035906001600160401b0382116105df576040519261146a601f8401601f191660200185611415565b8284526020838301011161011057816000926020809301838601378301015290565b90916114a36114b1936040845260408401906113a9565b9160208184039101526113a9565b90565b600080516020611720833981519152546001600160a01b031633036114d557565b60405163118cdaa760e01b8152336004820152602490fd5b6001600160a01b039081169081156115485760008051602061172083398151915280546001600160a01b031981168417909155167f8be0079c531659141344cd1fd0a4f28419497f9722a3daafe3b4186f6b6457e0600080a3565b604051631e4fbdf760e01b815260006004820152602490fd5b90600182811c92168015611591575b602083101461157b57565b634e487b7160e01b600052602260045260246000fd5b91607f1691611570565b6001600160a01b031660009081527f52c63247e1f47db19d5ce0460030c497f067ca4cebf71ba98eeadabe20bace016020526040902090565b916001600160a01b03808416928315610a26571692831561110d576000908382526000805160206116e08339815191528060205260408320549184831061165d575082847fddf252ad1be2c89b69c2b068fc378daa952ba7f163c4a11628f55a4df523b3ef959360409388602097528652038282205586815220818154019055604051908152a3565b60405163391434e360e21b81526001600160a01b0391909116600482015260248101929092525060448101839052606490fd5b60ff6000805160206117a08339815191525460401c16156116ad57565b604051631afcd79f60e31b8152600490fdfe30f5c4b652f95e2a697bda3258896c421eee4f29adce8fe38060f47f7aed91ad52c63247e1f47db19d5ce0460030c497f067ca4cebf71ba98eeadabe20bace0052c63247e1f47db19d5ce0460030c497f067ca4cebf71ba98eeadabe20bace049016d09d72d40fdae2fd8ceac6b6234c7706214fd39c1cd1e609a0528c199300290decd9548b62a8d60345a988386fc84ba6bc95484008f6362f93160ef3e563b10e2d527612073b26eecdfd717e6a320cf44b4afac2b0732d9fcbe2b7fa0cf646a2803e59a4de4e7a4c574b1243f25977ac4c77d5a1a4a609b5394cebb4a2aaf0c57e16840df040f15088dc2f81fe391c3923bec73e23a9662efc9c229c6a00a264697066735822122043d19a6b5b2e00535acdbe1c9f47c343410d52b7db3fad19e9dbfa67f8af05a864736f6c63430008140033","linkReferences":{}},"methodIdentifiers":{"allowance(address,address)":"dd62ed3e","approve(address,uint256)":"095ea7b3","balanceOf(address)":"70a08231","burn(address,uint256)":"9dc29fac","decimals()":"313ce567","factory()":"c45a0155","getMetadata()":"7a5b4f59","initialize(string,string,string,string)":"a523d35e","mint(address,uint256)":"40c10f19","name()":"06fdde03","owner()":"8da5cb5b","renounceOwnership()":"715018a6","symbol()":"95d89b41","totalSupply()":"18160ddd","transfer(address,uint256)":"a9059cbb","transferFrom(address,address,uint256)":"23b872dd","transferOwnership(address)":"f2fde38b","updateMetadata(string,string)":"56ce0e6c"},"id":41}