{"abi":[{"type":"constructor","inputs":[{"name":"_tokenImplementation","type":"address","internalType":"address"},{"name":"_uniswapV2Router","type":"address","internalType":"address"},{"name":"_uniswapV2Factory","type":"address","internalType":"address"},{"name":"_bondingCurve","type":"address","internalType":"address"},{"name":"_feePercent","type":"uint256","internalType":"uint256"}],"stateMutability":"nonpayable"},{"type":"function","name":"FEE_DENOMINATOR","inputs":[],"outputs":[{"name":"","type":"uint256","internalType":"uint256"}],"stateMutability":"view"},{"type":"function","name":"FUNDING_GOAL","inputs":[],"outputs":[{"name":"","type":"uint256","internalType":"uint256"}],"stateMutability":"view"},{"type":"function","name":"FUNDING_SUPPLY","inputs":[],"outputs":[{"name":"","type":"uint256","internalType":"uint256"}],"stateMutability":"view"},{"type":"function","name":"INITIAL_SUPPLY","inputs":[],"outputs":[{"name":"","type":"uint256","internalType":"uint256"}],"stateMutability":"view"},{"type":"function","name":"MAX_FEE_PERCENT","inputs":[],"outputs":[{"name":"","type":"uint256","internalType":"uint256"}],"stateMutability":"view"},{"type":"function","name":"MAX_SUPPLY","inputs":[],"outputs":[{"name":"","type":"uint256","internalType":"uint256"}],"stateMutability":"view"},{"type":"function","name":"bondingCurve","inputs":[],"outputs":[{"name":"","type":"address","internalType":"contract BondingCurve"}],"stateMutability":"view"},{"type":"function","name":"buy","inputs":[{"name":"tokenAddress","type":"address","internalType":"address"}],"outputs":[],"stateMutability":"payable"},{"type":"function","name":"claimFee","inputs":[],"outputs":[],"stateMutability":"nonpayable"},{"type":"function","name":"collateral","inputs":[{"name":"","type":"address","internalType":"address"}],"outputs":[{"name":"","type":"uint256","internalType":"uint256"}],"stateMutability":"view"},{"type":"function","name":"createToken","inputs":[{"name":"name","type":"string","internalType":"string"},{"name":"symbol","type":"string","internalType":"string"}],"outputs":[{"name":"","type":"address","internalType":"address"}],"stateMutability":"nonpayable"},{"type":"function","name":"fee","inputs":[],"outputs":[{"name":"","type":"uint256","internalType":"uint256"}],"stateMutability":"view"},{"type":"function","name":"feePercent","inputs":[],"outputs":[{"name":"","type":"uint256","internalType":"uint256"}],"stateMutability":"view"},{"type":"function","name":"owner","inputs":[],"outputs":[{"name":"","type":"address","internalType":"address"}],"stateMutability":"view"},{"type":"function","name":"paused","inputs":[],"outputs":[{"name":"","type":"bool","internalType":"bool"}],"stateMutability":"view"},{"type":"function","name":"renounceOwnership","inputs":[],"outputs":[],"stateMutability":"nonpayable"},{"type":"function","name":"sell","inputs":[{"name":"tokenAddress","type":"address","internalType":"address"},{"name":"amount","type":"uint256","internalType":"uint256"}],"outputs":[{"name":"ethReceived","type":"uint256","internalType":"uint256"}],"stateMutability":"nonpayable"},{"type":"function","name":"setBondingCurve","inputs":[{"name":"_bondingCurve","type":"address","internalType":"address"}],"outputs":[],"stateMutability":"nonpayable"},{"type":"function","name":"setFeePercent","inputs":[{"name":"_feePercent","type":"uint256","internalType":"uint256"}],"outputs":[],"stateMutability":"nonpayable"},{"type":"function","name":"setPaused","inputs":[{"name":"_paused","type":"bool","internalType":"bool"}],"outputs":[],"stateMutability":"nonpayable"},{"type":"function","name":"tokenImplementation","inputs":[],"outputs":[{"name":"","type":"address","internalType":"address"}],"stateMutability":"view"},{"type":"function","name":"tokens","inputs":[{"name":"","type":"address","internalType":"address"}],"outputs":[{"name":"","type":"uint8","internalType":"enum TokenFactory.TokenState"}],"stateMutability":"view"},{"type":"function","name":"transferOwnership","inputs":[{"name":"newOwner","type":"address","internalType":"address"}],"outputs":[],"stateMutability":"nonpayable"},{"type":"function","name":"uniswapV2Factory","inputs":[],"outputs":[{"name":"","type":"address","internalType":"address"}],"stateMutability":"view"},{"type":"function","name":"uniswapV2Router","inputs":[],"outputs":[{"name":"","type":"address","internalType":"address"}],"stateMutability":"view"},{"type":"event","name":"BondingCurveUpdated","inputs":[{"name":"newBondingCurve","type":"address","indexed":true,"internalType":"address"}],"anonymous":false},{"type":"event","name":"FeePercentChanged","inputs":[{"name":"newFeePercent","type":"uint256","indexed":false,"internalType":"uint256"}],"anonymous":false},{"type":"event","name":"FeesClaimed","inputs":[{"name":"owner","type":"address","indexed":true,"internalType":"address"},{"name":"amount","type":"uint256","indexed":false,"internalType":"uint256"}],"anonymous":false},{"type":"event","name":"OwnershipTransferred","inputs":[{"name":"previousOwner","type":"address","indexed":true,"internalType":"address"},{"name":"newOwner","type":"address","indexed":true,"internalType":"address"}],"anonymous":false},{"type":"event","name":"PausedSet","inputs":[{"name":"isPaused","type":"bool","indexed":false,"internalType":"bool"}],"anonymous":false},{"type":"event","name":"TokenCreated","inputs":[{"name":"token","type":"address","indexed":true,"internalType":"address"},{"name":"timestamp","type":"uint256","indexed":false,"internalType":"uint256"}],"anonymous":false},{"type":"event","name":"TokenLiqudityAdded","inputs":[{"name":"token","type":"address","indexed":true,"internalType":"address"},{"name":"timestamp","type":"uint256","indexed":false,"internalType":"uint256"}],"anonymous":false},{"type":"event","name":"TokenSold","inputs":[{"name":"token","type":"address","indexed":true,"internalType":"address"},{"name":"seller","type":"address","indexed":true,"internalType":"address"},{"name":"amount","type":"uint256","indexed":false,"internalType":"uint256"},{"name":"ethReceived","type":"uint256","indexed":false,"internalType":"uint256"},{"name":"feeAmount","type":"uint256","indexed":false,"internalType":"uint256"}],"anonymous":false},{"type":"error","name":"ETHTransferFailed","inputs":[]},{"type":"error","name":"FailedDeployment","inputs":[]},{"type":"error","name":"InsufficientBalance","inputs":[{"name":"balance","type":"uint256","internalType":"uint256"},{"name":"needed","type":"uint256","internalType":"uint256"}]},{"type":"error","name":"InsufficientCollateral","inputs":[]},{"type":"error","name":"OwnableInvalidOwner","inputs":[{"name":"owner","type":"address","internalType":"address"}]},{"type":"error","name":"OwnableUnauthorizedAccount","inputs":[{"name":"account","type":"address","internalType":"address"}]},{"type":"error","name":"ReentrancyGuardReentrantCall","inputs":[]},{"type":"error","name":"SafeERC20FailedOperation","inputs":[{"name":"token","type":"address","internalType":"address"}]},{"type":"error","name":"TokenNotFunding","inputs":[]},{"type":"error","name":"ZeroAmount","inputs":[]}],"bytecode":{"object":"0x60a034620001ab57601f6200185938819003918201601f19168301916001600160401b03831184841017620001b05780849260a094604052833981010312620001ab576200004d81620001c6565b6200005b60208301620001c6565b6200006960408401620001c6565b9260806200007a60608301620001c6565b91015193600160005533156200019257600180546001600160a01b031980821633908117909355946001600160a01b039283928392919083167f8be0079c531659141344cd1fd0a4f28419497f9722a3daafe3b4186f6b6457e0600080a3620000e78289161515620001db565b1692620000f6841515620001db565b169262000105841515620001db565b169362000114851515620001db565b6103e886116200015e576080528260055416176005558160065416176006556007541617600755600855604051611641908162000218823960805181818161108a015261113a0152f35b60405162461bcd60e51b815260206004820152600c60248201526b08ccaca40e8dede40d0d2ced60a31b6044820152606490fd5b604051631e4fbdf760e01b815260006004820152602490fd5b600080fd5b634e487b7160e01b600052604160045260246000fd5b51906001600160a01b0382168203620001ab57565b15620001e357565b60405162461bcd60e51b815260206004820152600c60248201526b5a65726f206164647265737360a01b6044820152606490fdfe6080604081815260048036101561001557600080fd5b600092833560e01c9081631694505e146113605750806316c38b3c146112fe5780632f2f2d56146110b95780632f3a3d5d146110755780632ff2e9dc1461104f57806332cb6b0c1461102857806342e49d5a1461100457806343ff1fb814610f6557806359d0f71314610f3c5780635c975abb14610f1857806367d8174014610efb5780636c197ff514610c88578063715018a614610c275780637ce3489b14610b9d5780637fd6f15c14610b7e5780638da5cb5b14610b5557806399d32fc414610ae3578063a5fdc5de14610aab578063bfe6085614610a84578063d73792a914610a67578063ddca3f4314610a48578063e4860339146109ee578063eff1d50e146109c5578063f088d547146101c95763f2fde38b1461013657600080fd5b346101c55760203660031901126101c55761014f611450565b90610158611466565b6001600160a01b039182169283156101af575050600154826bffffffffffffffffffffffff60a01b821617600155167f8be0079c531659141344cd1fd0a4f28419497f9722a3daafe3b4186f6b6457e0600080a380f35b51631e4fbdf760e01b8152908101849052602490fd5b8280fd5b509190602090816003193601126101c5576101e2611450565b6101f160ff600a541615611500565b6101f96115b1565b6001600160a01b03908116808552600284528285205490959060ff1660038110156109b25760010361097d573415610949578585526003845282852054956801158e460913d0000091878303978389116109365761271080340234810482036109235760085490818301908184116109105781156108fb57049a808c116108f3575b50808b02908b8204148b1517156108de5761138881018091116108de5704946102a4868b6115a4565b8034116000146108d3576102bb6102c59134611581565b965b6009546115a4565b60095580600754169187516318160ddd60e01b815289818681895afa9081156106af578c92918b918d916108a3575b508a519586948592637cabb7cf60e01b845289840152602483015260449687915afa9182156106af578b92610874575b5088516318160ddd60e01b81528a8187818a5afa90811561086a578c91610838575b506b0295be96e6406697200000009081039081116108235782116107e1578a9b610372919b9a9b6115a4565b95853b156107bf5788516340c10f1960e01b808252338783019081526020810194909452928b90829081906040010381838b5af180156107d757908b916107c3575b5050861015610413575b50505050845260038552828420556103d9575b506001815580f35b81809161040b946103ea3434611581565b91516103f5816113af565b8381520190335af1610405611492565b506114c2565b3881816103d1565b909294919380969798503b156107bf5787519081523085820152896aa56fa5b99019a5c80000009182602482015281818781838c5af180156106f5579087949392916107a6575b5084600654168b86600554168c51968780926315ab88c960e31b82525afa94851561079c5788838b938f958f8c958c929b61077d575b5051998a9687956364e329cb60e11b87528601521660248401525af19283156106af579186918a9594938d9461074e575b508c8c8a8988600554169951809481938c63095ea7b360e01b9a8b85528401528760248401525af1801561074257610725575b50605f820295828704605f14831517156107125761012c42018042116106ff57908e949392918d5198899363f305d71960e01b85528d8d86015260248501528a84016a9d2a10a37c185d7e000000905260649004606484015230608484015260a4830152815a9360c492606095f19485156106f557908b9183966106b9575b50868560055416918c51948593849283528b8301528060248301528b5af180156106af57610682575b5016918651908882019263a9059cbb60e01b8452600060248401528183015281526080810181811067ffffffffffffffff82111761066d57875251879189919082855af1156106635786513d61065a5750803b155b61064457505090849291839080855260028652838520600260ff19825416179055807f7b7fe75b1149a5dfdde15ea794c36563367c5cd459178393d63e169d50be1782878651428152a2388080806103be565b8451635274afe760e01b81529182015260249150fd5b600114156105f1565b84513d88823e3d90fd5b604185634e487b7160e01b6000525260246000fd5b6106a1908a3d8c116106a8575b61069981836113cb565b8101906115f3565b503861059c565b503d61068f565b89513d8d823e3d90fd5b915094506060813d82116106ed575b816106d5606093836113cb565b810103126106e957898b9101519438610573565b5080fd5b3d91506106c8565b8a513d84823e3d90fd5b634e487b7160e01b8f5260118a5260248ffd5b634e487b7160e01b8e526011895260248efd5b61073b908d803d106106a85761069981836113cb565b50386104f4565b8e8d51903d90823e3d90fd5b61076f9194508c8d3d10610776575b61076781836113cb565b8101906115d4565b92386104c1565b503d61075d565b610795919b50883d8a116107765761076781836113cb565b9938610490565b8b513d84823e3d90fd5b6107b291929450611385565b6107bf5784918a3861045a565b8980fd5b6107cc90611385565b6107bf5789386103b4565b8a513d8d823e3d90fd5b885162461bcd60e51b81528086018b9052601760248201527f546f6b656e20737570706c79206e6f7420656e6f75676800000000000000000081860152606490fd5b601186634e487b7160e01b6000525260246000fd5b90508a81813d8311610863575b61084f81836113cb565b8101031261085e575138610346565b600080fd5b503d610845565b8a513d8e823e3d90fd5b9091508981813d831161089c575b61088c81836113cb565b8101031261085e57519038610324565b503d610882565b93505082813d83116108cc575b6108ba81836113cb565b8101031261085e57898c9251386102f4565b503d6108b0565b506102c589966102bd565b601184634e487b7160e01b6000525260246000fd5b9a503861027b565b601286634e487b7160e01b6000525260246000fd5b634e487b7160e01b8c526011865260248cfd5b634e487b7160e01b8a526011845260248afd5b634e487b7160e01b885260118252602488fd5b825162461bcd60e51b8152908101849052600e60248201526d08aa89040dcdee840cadcdeeaced60931b6044820152606490fd5b825162461bcd60e51b8152908101849052600f60248201526e151bdad95b881b9bdd08199bdd5b99608a1b6044820152606490fd5b634e487b7160e01b865260218252602486fd5b5050346106e957816003193601126106e95760075490516001600160a01b039091168152602090f35b509190346106e95760203660031901126106e9576001600160a01b03610a12611450565b168252600260205260ff81832054169051916003821015610a3557602083838152f35b634e487b7160e01b815260218452602490fd5b5050346106e957816003193601126106e9576020906009549051908152f35b5050346106e957816003193601126106e957602090516127108152f35b5050346106e957816003193601126106e957602090516b0295be96e6406697200000008152f35b5050346106e95760203660031901126106e95760209181906001600160a01b03610ad3611450565b1681526003845220549051908152f35b5050346106e957816003193601126106e957610afd611466565b6009549082600955610b2883808060208551610b18816113af565b8281520186335af1610405611492565b519081527f9493e5bbe4e8e0ac67284469a2d677403d0378a85a59e341d3abc433d0d9a20960203392a280f35b5050346106e957816003193601126106e95760015490516001600160a01b039091168152602090f35b5050346106e957816003193601126106e9576020906008549051908152f35b5090346101c55760203660031901126101c557813591610bbb611466565b6103e88311610bf65750816020917f91955c12515f4eb8f1ff79df82d1933ff11b6d3b9a3019c6568840616ec36a749360085551908152a180f35b6020606492519162461bcd60e51b8352820152600c60248201526b08ccaca40e8dede40d0d2ced60a31b6044820152fd5b8334610c855780600319360112610c8557610c40611466565b600180546001600160a01b031981169091556000906001600160a01b03167f8be0079c531659141344cd1fd0a4f28419497f9722a3daafe3b4186f6b6457e08280a380f35b80fd5b509190346106e957806003193601126106e957610ca3611450565b9060243592610cb06115b1565b610cbf60ff600a541615611500565b6001600160a01b0392831680825260026020908152838320549095919060ff166003811015610ee857600103610ed8578115610ec8578083526003865283832054946007541684516318160ddd60e01b815287818a81865afa908115610ebe579088918691610e8f575b50604487518094819363480e739f60e11b83528d8301528760248301525afa908115610e85578491610e58575b506127106008548202049081810396818110610e4857833b15610e3a578651632770a7eb60e21b815233818c0190815260208101879052879082908190604001038183895af18015610e3e57908791610e26575b5084905260038952038585205580600954016009558380808089335af1610dcf611492565b5015610e165790600193929185519283528688840152858301527f9387a595ac4be9038bbb9751abad8baa3dcf219dd9e19abb81552bd521fe354660603393a35551908152f35b845163b12d13eb60e01b81528890fd5b610e2f90611385565b610e3a578538610daa565b8580fd5b88513d89823e3d90fd5b8651633a23d82560e01b81528a90fd5b90508681813d8311610e7e575b610e6f81836113cb565b8101031261085e575138610d56565b503d610e65565b85513d86823e3d90fd5b82819392503d8311610eb7575b610ea681836113cb565b8101031261085e5787905138610d29565b503d610e9c565b86513d87823e3d90fd5b8351631f2a200560e01b81528790fd5b8351631c3c578160e11b81528790fd5b634e487b7160e01b845260218852602484fd5b5050346106e957816003193601126106e957602090516103e88152f35b5050346106e957816003193601126106e95760209060ff600a541690519015158152f35b5050346106e957816003193601126106e95760065490516001600160a01b039091168152602090f35b50346101c55760203660031901126101c557610f7f611450565b610f87611466565b6001600160a01b0316918215610fd2575050600780546001600160a01b031916821790557fc4fda5d836a9aaafabd3088c5f5dcabfe179c3b392b09dbac0e8727667f3c7768280a280f35b906020606492519162461bcd60e51b8352820152600c60248201526b5a65726f206164647265737360a01b6044820152fd5b5050346106e957816003193601126106e957602090516801158e460913d000008152f35b5050346106e957816003193601126106e957602090516b033b2e3c9fd0803ce80000008152f35b5050346106e957816003193601126106e957602090516aa56fa5b99019a5c80000008152f35b5050346106e957816003193601126106e957517f00000000000000000000000000000000000000000000000000000000000000006001600160a01b03168152602090f35b5090346101c557600319818136011261125f5767ffffffffffffffff908335828111610e3a576110ec9036908601611409565b91602435908111610e3a576111049036908601611409565b9361111460ff600a541615611500565b825180151590816112f2575b50156112b957845180151590816112ad575b5015611272577f0000000000000000000000000000000000000000000000000000000000000000608881901c62ffffff16763d602d80600a3d3981f3363d3d373d3d3d363d7300000017875260781b6e5af43d82803e903d91602b57fd5bf3176020526001600160a01b036037600988f0169485156112635790869291863b1561125f5785926111ec916111dd8551978896879663266c45bb60e11b88528701526044860190611541565b91848303016024850152611541565b038183875af1801561125557938291602095611246575b508381526002855220600160ff19825416179055817f1cef2b4ec7f129e441c961eb4fae22fd3131868db6be990c6f065f35b6b53cf3848351428152a251908152f35b61124f90611385565b38611203565b82513d86823e3d90fd5b8380fd5b50835163b06ebf3d60e01b8152fd5b606490602085519162461bcd60e51b83528201526015602482015274092dcecc2d8d2c840e6f2dac4ded840d8cadccee8d605b1b6044820152fd5b60089150111538611132565b606490602085519162461bcd60e51b83528201526013602482015272092dcecc2d8d2c840dcc2daca40d8cadccee8d606b1b6044820152fd5b60209150111538611120565b50346101c55760203660031901126101c55735908115158092036101c5577f40db37ff5c0bdc2c427fbb2078c8f24afea940abac0e3c23bb4ea3bf2da2b21291602091611349611466565b60ff19600a541660ff831617600a5551908152a180f35b8490346106e957816003193601126106e9576005546001600160a01b03168152602090f35b67ffffffffffffffff811161139957604052565b634e487b7160e01b600052604160045260246000fd5b6020810190811067ffffffffffffffff82111761139957604052565b90601f8019910116810190811067ffffffffffffffff82111761139957604052565b67ffffffffffffffff811161139957601f01601f191660200190565b81601f8201121561085e57803590611420826113ed565b9261142e60405194856113cb565b8284526020838301011161085e57816000926020809301838601378301015290565b600435906001600160a01b038216820361085e57565b6001546001600160a01b0316330361147a57565b60405163118cdaa760e01b8152336004820152602490fd5b3d156114bd573d906114a3826113ed565b916114b160405193846113cb565b82523d6000602084013e565b606090565b156114c957565b60405162461bcd60e51b815260206004820152600f60248201526e115512081cd95b990819985a5b1959608a1b6044820152606490fd5b1561150757565b60405162461bcd60e51b815260206004820152601260248201527110dbdb9d1c9858dd081a5cc81c185d5cd95960721b6044820152606490fd5b919082519283825260005b84811061156d575050826000602080949584010152601f8019910116010190565b60208183018101518483018201520161154c565b9190820391821161158e57565b634e487b7160e01b600052601160045260246000fd5b9190820180921161158e57565b6002600054146115c2576002600055565b604051633ee5aeb560e01b8152600490fd5b9081602091031261085e57516001600160a01b038116810361085e5790565b9081602091031261085e5751801515810361085e579056fea264697066735822122038df7f0af9ed5746240f79d1ca42b54258dc66b7cdaa3825cc67b730ef610d5264736f6c63430008140033","linkReferences":{}},"methodIdentifiers":{"FEE_DENOMINATOR()":"d73792a9","FUNDING_GOAL()":"42e49d5a","FUNDING_SUPPLY()":"bfe60856","INITIAL_SUPPLY()":"2ff2e9dc","MAX_FEE_PERCENT()":"67d81740","MAX_SUPPLY()":"32cb6b0c","bondingCurve()":"eff1d50e","buy(address)":"f088d547","claimFee()":"99d32fc4","collateral(address)":"a5fdc5de","createToken(string,string)":"2f2f2d56","fee()":"ddca3f43","feePercent()":"7fd6f15c","owner()":"8da5cb5b","paused()":"5c975abb","renounceOwnership()":"715018a6","sell(address,uint256)":"6c197ff5","setBondingCurve(address)":"43ff1fb8","setFeePercent(uint256)":"7ce3489b","setPaused(bool)":"16c38b3c","tokenImplementation()":"2f3a3d5d","tokens(address)":"e4860339","transferOwnership(address)":"f2fde38b","uniswapV2Factory()":"59d0f713","uniswapV2Router()":"1694505e"},"id":45}