{"abi":[{"type":"constructor","inputs":[{"name":"_tokenImplementation","type":"address","internalType":"address"},{"name":"_uniswapV2Router","type":"address","internalType":"address"},{"name":"_uniswapV2Factory","type":"address","internalType":"address"},{"name":"_bondingCurve","type":"address","internalType":"address"},{"name":"_feePercent","type":"uint256","internalType":"uint256"}],"stateMutability":"nonpayable"},{"type":"function","name":"FEE_DENOMINATOR","inputs":[],"outputs":[{"name":"","type":"uint256","internalType":"uint256"}],"stateMutability":"view"},{"type":"function","name":"FUNDING_GOAL","inputs":[],"outputs":[{"name":"","type":"uint256","internalType":"uint256"}],"stateMutability":"view"},{"type":"function","name":"FUNDING_SUPPLY","inputs":[],"outputs":[{"name":"","type":"uint256","internalType":"uint256"}],"stateMutability":"view"},{"type":"function","name":"INITIAL_SUPPLY","inputs":[],"outputs":[{"name":"","type":"uint256","internalType":"uint256"}],"stateMutability":"view"},{"type":"function","name":"MAX_FEE_PERCENT","inputs":[],"outputs":[{"name":"","type":"uint256","internalType":"uint256"}],"stateMutability":"view"},{"type":"function","name":"MAX_SUPPLY","inputs":[],"outputs":[{"name":"","type":"uint256","internalType":"uint256"}],"stateMutability":"view"},{"type":"function","name":"bondingCurve","inputs":[],"outputs":[{"name":"","type":"address","internalType":"contract BondingCurve"}],"stateMutability":"view"},{"type":"function","name":"buy","inputs":[{"name":"tokenAddress","type":"address","internalType":"address"}],"outputs":[],"stateMutability":"payable"},{"type":"function","name":"claimFee","inputs":[],"outputs":[],"stateMutability":"nonpayable"},{"type":"function","name":"collateral","inputs":[{"name":"","type":"address","internalType":"address"}],"outputs":[{"name":"","type":"uint256","internalType":"uint256"}],"stateMutability":"view"},{"type":"function","name":"createToken","inputs":[{"name":"name","type":"string","internalType":"string"},{"name":"symbol","type":"string","internalType":"string"},{"name":"ipfsHash","type":"string","internalType":"string"},{"name":"description","type":"string","internalType":"string"}],"outputs":[{"name":"","type":"address","internalType":"address"}],"stateMutability":"nonpayable"},{"type":"function","name":"fee","inputs":[],"outputs":[{"name":"","type":"uint256","internalType":"uint256"}],"stateMutability":"view"},{"type":"function","name":"feePercent","inputs":[],"outputs":[{"name":"","type":"uint256","internalType":"uint256"}],"stateMutability":"view"},{"type":"function","name":"owner","inputs":[],"outputs":[{"name":"","type":"address","internalType":"address"}],"stateMutability":"view"},{"type":"function","name":"paused","inputs":[],"outputs":[{"name":"","type":"bool","internalType":"bool"}],"stateMutability":"view"},{"type":"function","name":"renounceOwnership","inputs":[],"outputs":[],"stateMutability":"nonpayable"},{"type":"function","name":"sell","inputs":[{"name":"tokenAddress","type":"address","internalType":"address"},{"name":"amount","type":"uint256","internalType":"uint256"}],"outputs":[{"name":"ethReceived","type":"uint256","internalType":"uint256"}],"stateMutability":"nonpayable"},{"type":"function","name":"setBondingCurve","inputs":[{"name":"_bondingCurve","type":"address","internalType":"address"}],"outputs":[],"stateMutability":"nonpayable"},{"type":"function","name":"setFeePercent","inputs":[{"name":"_feePercent","type":"uint256","internalType":"uint256"}],"outputs":[],"stateMutability":"nonpayable"},{"type":"function","name":"setPaused","inputs":[{"name":"_paused","type":"bool","internalType":"bool"}],"outputs":[],"stateMutability":"nonpayable"},{"type":"function","name":"tokenImplementation","inputs":[],"outputs":[{"name":"","type":"address","internalType":"address"}],"stateMutability":"view"},{"type":"function","name":"tokens","inputs":[{"name":"","type":"address","internalType":"address"}],"outputs":[{"name":"","type":"uint8","internalType":"enum TokenFactory.TokenState"}],"stateMutability":"view"},{"type":"function","name":"transferOwnership","inputs":[{"name":"newOwner","type":"address","internalType":"address"}],"outputs":[],"stateMutability":"nonpayable"},{"type":"function","name":"uniswapV2Factory","inputs":[],"outputs":[{"name":"","type":"address","internalType":"address"}],"stateMutability":"view"},{"type":"function","name":"uniswapV2Router","inputs":[],"outputs":[{"name":"","type":"address","internalType":"address"}],"stateMutability":"view"},{"type":"event","name":"BondingCurveUpdated","inputs":[{"name":"newBondingCurve","type":"address","indexed":true,"internalType":"address"}],"anonymous":false},{"type":"event","name":"FeePercentChanged","inputs":[{"name":"newFeePercent","type":"uint256","indexed":false,"internalType":"uint256"}],"anonymous":false},{"type":"event","name":"FeesClaimed","inputs":[{"name":"owner","type":"address","indexed":true,"internalType":"address"},{"name":"amount","type":"uint256","indexed":false,"internalType":"uint256"}],"anonymous":false},{"type":"event","name":"OwnershipTransferred","inputs":[{"name":"previousOwner","type":"address","indexed":true,"internalType":"address"},{"name":"newOwner","type":"address","indexed":true,"internalType":"address"}],"anonymous":false},{"type":"event","name":"PausedSet","inputs":[{"name":"isPaused","type":"bool","indexed":false,"internalType":"bool"}],"anonymous":false},{"type":"event","name":"TokenCreated","inputs":[{"name":"token","type":"address","indexed":true,"internalType":"address"},{"name":"timestamp","type":"uint256","indexed":false,"internalType":"uint256"}],"anonymous":false},{"type":"event","name":"TokenLiqudityAdded","inputs":[{"name":"token","type":"address","indexed":true,"internalType":"address"},{"name":"timestamp","type":"uint256","indexed":false,"internalType":"uint256"}],"anonymous":false},{"type":"event","name":"TokenSold","inputs":[{"name":"token","type":"address","indexed":true,"internalType":"address"},{"name":"seller","type":"address","indexed":true,"internalType":"address"},{"name":"amount","type":"uint256","indexed":false,"internalType":"uint256"},{"name":"ethReceived","type":"uint256","indexed":false,"internalType":"uint256"},{"name":"feeAmount","type":"uint256","indexed":false,"internalType":"uint256"}],"anonymous":false},{"type":"error","name":"ETHTransferFailed","inputs":[]},{"type":"error","name":"FailedDeployment","inputs":[]},{"type":"error","name":"InsufficientBalance","inputs":[{"name":"balance","type":"uint256","internalType":"uint256"},{"name":"needed","type":"uint256","internalType":"uint256"}]},{"type":"error","name":"InsufficientCollateral","inputs":[]},{"type":"error","name":"OwnableInvalidOwner","inputs":[{"name":"owner","type":"address","internalType":"address"}]},{"type":"error","name":"OwnableUnauthorizedAccount","inputs":[{"name":"account","type":"address","internalType":"address"}]},{"type":"error","name":"ReentrancyGuardReentrantCall","inputs":[]},{"type":"error","name":"SafeERC20FailedOperation","inputs":[{"name":"token","type":"address","internalType":"address"}]},{"type":"error","name":"TokenNotFunding","inputs":[]},{"type":"error","name":"ZeroAmount","inputs":[]}],"bytecode":{"object":"0x60a034620001ab57601f6200192f38819003918201601f19168301916001600160401b03831184841017620001b05780849260a094604052833981010312620001ab576200004d81620001c6565b6200005b60208301620001c6565b6200006960408401620001c6565b9260806200007a60608301620001c6565b91015193600160005533156200019257600180546001600160a01b031980821633908117909355946001600160a01b039283928392919083167f8be0079c531659141344cd1fd0a4f28419497f9722a3daafe3b4186f6b6457e0600080a3620000e78289161515620001db565b1692620000f6841515620001db565b169262000105841515620001db565b169362000114851515620001db565b6103e886116200015e5760805282600554161760055581600654161760065560075416176007556008556040516117179081620002188239608051818181610ba901526113a50152f35b60405162461bcd60e51b815260206004820152600c60248201526b08ccaca40e8dede40d0d2ced60a31b6044820152606490fd5b604051631e4fbdf760e01b815260006004820152602490fd5b600080fd5b634e487b7160e01b600052604160045260246000fd5b51906001600160a01b0382168203620001ab57565b15620001e357565b60405162461bcd60e51b815260206004820152600c60248201526b5a65726f206164647265737360a01b6044820152606490fdfe6080604081815260048036101561001557600080fd5b600092833560e01c9081631694505e146114365750806316c38b3c146113d45780632f3a3d5d146113905780632ff2e9dc1461136a57806332cb6b0c1461134357806342e49d5a1461131f57806343ff1fb81461128057806359d0f713146112575780635c975abb1461123357806367d81740146112165780636c197ff514610fa3578063715018a614610f425780637ce3489b14610eb85780637fd6f15c14610e995780638da5cb5b14610e7057806399d32fc414610dfe578063a076965914610ae3578063a5fdc5de14610aab578063bfe6085614610a84578063d73792a914610a67578063ddca3f4314610a48578063e4860339146109ee578063eff1d50e146109c5578063f088d547146101c95763f2fde38b1461013657600080fd5b346101c55760203660031901126101c55761014f61145b565b9061015861153c565b6001600160a01b039182169283156101af575050600154826bffffffffffffffffffffffff60a01b821617600155167f8be0079c531659141344cd1fd0a4f28419497f9722a3daafe3b4186f6b6457e0600080a380f35b51631e4fbdf760e01b8152908101849052602490fd5b8280fd5b509190602090816003193601126101c5576101e261145b565b6101f160ff600a5416156115d6565b6101f9611687565b6001600160a01b03908116808552600284528285205490959060ff1660038110156109b25760010361097d573415610949578585526003845282852054956801158e460913d0000091878303978389116109365761271080340234810482036109235760085490818301908184116109105781156108fb57049a808c116108f3575b50808b02908b8204148b1517156108de5761138881018091116108de5704946102a4868b61167a565b8034116000146108d3576102bb6102c59134611657565b965b60095461167a565b60095580600754169187516318160ddd60e01b815289818681895afa9081156106af578c92918b918d916108a3575b508a519586948592637cabb7cf60e01b845289840152602483015260449687915afa9182156106af578b92610874575b5088516318160ddd60e01b81528a8187818a5afa90811561086a578c91610838575b506b0295be96e6406697200000009081039081116108235782116107e1578a9b610372919b9a9b61167a565b95853b156107bf5788516340c10f1960e01b808252338783019081526020810194909452928b90829081906040010381838b5af180156107d757908b916107c3575b5050861015610413575b50505050845260038552828420556103d9575b506001815580f35b81809161040b946103ea3434611657565b91516103f58161149b565b8381520190335af1610405611568565b50611598565b3881816103d1565b909294919380969798503b156107bf5787519081523085820152896aa56fa5b99019a5c80000009182602482015281818781838c5af180156106f5579087949392916107a6575b5084600654168b86600554168c51968780926315ab88c960e31b82525afa94851561079c5788838b938f958f8c958c929b61077d575b5051998a9687956364e329cb60e11b87528601521660248401525af19283156106af579186918a9594938d9461074e575b508c8c8a8988600554169951809481938c63095ea7b360e01b9a8b85528401528760248401525af1801561074257610725575b50605f820295828704605f14831517156107125761012c42018042116106ff57908e949392918d5198899363f305d71960e01b85528d8d86015260248501528a84016a9d2a10a37c185d7e000000905260649004606484015230608484015260a4830152815a9360c492606095f19485156106f557908b9183966106b9575b50868560055416918c51948593849283528b8301528060248301528b5af180156106af57610682575b5016918651908882019263a9059cbb60e01b8452600060248401528183015281526080810181811067ffffffffffffffff82111761066d57875251879189919082855af1156106635786513d61065a5750803b155b61064457505090849291839080855260028652838520600260ff19825416179055807f7b7fe75b1149a5dfdde15ea794c36563367c5cd459178393d63e169d50be1782878651428152a2388080806103be565b8451635274afe760e01b81529182015260249150fd5b600114156105f1565b84513d88823e3d90fd5b604185634e487b7160e01b6000525260246000fd5b6106a1908a3d8c116106a8575b61069981836114b7565b8101906116c9565b503861059c565b503d61068f565b89513d8d823e3d90fd5b915094506060813d82116106ed575b816106d5606093836114b7565b810103126106e957898b9101519438610573565b5080fd5b3d91506106c8565b8a513d84823e3d90fd5b634e487b7160e01b8f5260118a5260248ffd5b634e487b7160e01b8e526011895260248efd5b61073b908d803d106106a85761069981836114b7565b50386104f4565b8e8d51903d90823e3d90fd5b61076f9194508c8d3d10610776575b61076781836114b7565b8101906116aa565b92386104c1565b503d61075d565b610795919b50883d8a116107765761076781836114b7565b9938610490565b8b513d84823e3d90fd5b6107b291929450611471565b6107bf5784918a3861045a565b8980fd5b6107cc90611471565b6107bf5789386103b4565b8a513d8d823e3d90fd5b885162461bcd60e51b81528086018b9052601760248201527f546f6b656e20737570706c79206e6f7420656e6f75676800000000000000000081860152606490fd5b601186634e487b7160e01b6000525260246000fd5b90508a81813d8311610863575b61084f81836114b7565b8101031261085e575138610346565b600080fd5b503d610845565b8a513d8e823e3d90fd5b9091508981813d831161089c575b61088c81836114b7565b8101031261085e57519038610324565b503d610882565b93505082813d83116108cc575b6108ba81836114b7565b8101031261085e57898c9251386102f4565b503d6108b0565b506102c589966102bd565b601184634e487b7160e01b6000525260246000fd5b9a503861027b565b601286634e487b7160e01b6000525260246000fd5b634e487b7160e01b8c526011865260248cfd5b634e487b7160e01b8a526011845260248afd5b634e487b7160e01b885260118252602488fd5b825162461bcd60e51b8152908101849052600e60248201526d08aa89040dcdee840cadcdeeaced60931b6044820152606490fd5b825162461bcd60e51b8152908101849052600f60248201526e151bdad95b881b9bdd08199bdd5b99608a1b6044820152606490fd5b634e487b7160e01b865260218252602486fd5b5050346106e957816003193601126106e95760075490516001600160a01b039091168152602090f35b509190346106e95760203660031901126106e9576001600160a01b03610a1261145b565b168252600260205260ff81832054169051916003821015610a3557602083838152f35b634e487b7160e01b815260218452602490fd5b5050346106e957816003193601126106e9576020906009549051908152f35b5050346106e957816003193601126106e957602090516127108152f35b5050346106e957816003193601126106e957602090516b0295be96e6406697200000008152f35b5050346106e95760203660031901126106e95760209181906001600160a01b03610ad361145b565b1681526003845220549051908152f35b508290346106e957600319926080368501126101c55767ffffffffffffffff8235818111610dfa57610b1890369085016114f5565b906024938435828111610df657610b3290369083016114f5565b6044978835848111610cf857610b4b90369085016114f5565b9360649081359081116107bf57610b6590369086016114f5565b90610b7560ff600a5416156115d6565b86518015159081610dea575b5015610db65783518015159081610daa575b5015610d7457855115610d4157815115610d0c577f0000000000000000000000000000000000000000000000000000000000000000608881901c62ffffff16763d602d80600a3d3981f3363d3d373d3d3d363d73000000178b5260781b6e5af43d82803e903d91602b57fd5bf3176020526001600160a01b03603760098cf016988915610cfc578a9b8a9b98999a3b15610cf857608097610c65610c7493610c8298610c568f519e8f9d8e9d8e635291e9af60e11b8152015260848d0190611617565b91898c840301908c0152611617565b91868984030190890152611617565b928584030190850152611617565b038183875af18015610cee57610cda575b50808383602095526002855220600160ff19825416179055817f1cef2b4ec7f129e441c961eb4fae22fd3131868db6be990c6f065f35b6b53cf3848351428152a251908152f35b610ce48491611471565b6101c55783610c93565b82513d86823e3d90fd5b8880fd5b885163b06ebf3d60e01b81528690fd5b875162461bcd60e51b81526020818701526014818b01527311195cd8dc9a5c1d1a5bdb881c995c5d5a5c995960621b818d0152fd5b875162461bcd60e51b81526020818701526012818b01527112541194c81a185cda081c995c5d5a5c995960721b818d0152fd5b875162461bcd60e51b81526020818701526015818b015274092dcecc2d8d2c840e6f2dac4ded840d8cadccee8d605b1b818d0152fd5b6008915011158c610b93565b875162461bcd60e51b81526020818701526013818b015272092dcecc2d8d2c840dcc2daca40d8cadccee8d606b1b818d0152fd5b6020915011158c610b81565b8680fd5b8480fd5b5050346106e957816003193601126106e957610e1861153c565b6009549082600955610e4383808060208551610e338161149b565b8281520186335af1610405611568565b519081527f9493e5bbe4e8e0ac67284469a2d677403d0378a85a59e341d3abc433d0d9a20960203392a280f35b5050346106e957816003193601126106e95760015490516001600160a01b039091168152602090f35b5050346106e957816003193601126106e9576020906008549051908152f35b5090346101c55760203660031901126101c557813591610ed661153c565b6103e88311610f115750816020917f91955c12515f4eb8f1ff79df82d1933ff11b6d3b9a3019c6568840616ec36a749360085551908152a180f35b6020606492519162461bcd60e51b8352820152600c60248201526b08ccaca40e8dede40d0d2ced60a31b6044820152fd5b8334610fa05780600319360112610fa057610f5b61153c565b600180546001600160a01b031981169091556000906001600160a01b03167f8be0079c531659141344cd1fd0a4f28419497f9722a3daafe3b4186f6b6457e08280a380f35b80fd5b509190346106e957806003193601126106e957610fbe61145b565b9060243592610fcb611687565b610fda60ff600a5416156115d6565b6001600160a01b0392831680825260026020908152838320549095919060ff166003811015611203576001036111f35781156111e3578083526003865283832054946007541684516318160ddd60e01b815287818a81865afa9081156111d95790889186916111aa575b50604487518094819363480e739f60e11b83528d8301528760248301525afa9081156111a057849161116f575b50612710600854820204908181039681811061115f57833b1561115b578651632770a7eb60e21b815233818c0190815260208101879052879082908190604001038183895af180156111515761113e575b5083865260038952038585205580600954016009558380808089335af16110e7611568565b501561112e5790600193929185519283528688840152858301527f9387a595ac4be9038bbb9751abad8baa3dcf219dd9e19abb81552bd521fe354660603393a35551908152f35b845163b12d13eb60e01b81528890fd5b61114a90969196611471565b94386110c2565b88513d89823e3d90fd5b8580fd5b8651633a23d82560e01b81528a90fd5b90508681813d8311611199575b61118681836114b7565b81010312611195575138611071565b8380fd5b503d61117c565b85513d86823e3d90fd5b82819392503d83116111d2575b6111c181836114b7565b81010312610dfa5787905138611044565b503d6111b7565b86513d87823e3d90fd5b8351631f2a200560e01b81528790fd5b8351631c3c578160e11b81528790fd5b634e487b7160e01b845260218852602484fd5b5050346106e957816003193601126106e957602090516103e88152f35b5050346106e957816003193601126106e95760209060ff600a541690519015158152f35b5050346106e957816003193601126106e95760065490516001600160a01b039091168152602090f35b50346101c55760203660031901126101c55761129a61145b565b6112a261153c565b6001600160a01b03169182156112ed575050600780546001600160a01b031916821790557fc4fda5d836a9aaafabd3088c5f5dcabfe179c3b392b09dbac0e8727667f3c7768280a280f35b906020606492519162461bcd60e51b8352820152600c60248201526b5a65726f206164647265737360a01b6044820152fd5b5050346106e957816003193601126106e957602090516801158e460913d000008152f35b5050346106e957816003193601126106e957602090516b033b2e3c9fd0803ce80000008152f35b5050346106e957816003193601126106e957602090516aa56fa5b99019a5c80000008152f35b5050346106e957816003193601126106e957517f00000000000000000000000000000000000000000000000000000000000000006001600160a01b03168152602090f35b50346101c55760203660031901126101c55735908115158092036101c5577f40db37ff5c0bdc2c427fbb2078c8f24afea940abac0e3c23bb4ea3bf2da2b2129160209161141f61153c565b60ff19600a541660ff831617600a5551908152a180f35b8490346106e957816003193601126106e9576005546001600160a01b03168152602090f35b600435906001600160a01b038216820361085e57565b67ffffffffffffffff811161148557604052565b634e487b7160e01b600052604160045260246000fd5b6020810190811067ffffffffffffffff82111761148557604052565b90601f8019910116810190811067ffffffffffffffff82111761148557604052565b67ffffffffffffffff811161148557601f01601f191660200190565b81601f8201121561085e5780359061150c826114d9565b9261151a60405194856114b7565b8284526020838301011161085e57816000926020809301838601378301015290565b6001546001600160a01b0316330361155057565b60405163118cdaa760e01b8152336004820152602490fd5b3d15611593573d90611579826114d9565b9161158760405193846114b7565b82523d6000602084013e565b606090565b1561159f57565b60405162461bcd60e51b815260206004820152600f60248201526e115512081cd95b990819985a5b1959608a1b6044820152606490fd5b156115dd57565b60405162461bcd60e51b815260206004820152601260248201527110dbdb9d1c9858dd081a5cc81c185d5cd95960721b6044820152606490fd5b919082519283825260005b848110611643575050826000602080949584010152601f8019910116010190565b602081830181015184830182015201611622565b9190820391821161166457565b634e487b7160e01b600052601160045260246000fd5b9190820180921161166457565b600260005414611698576002600055565b604051633ee5aeb560e01b8152600490fd5b9081602091031261085e57516001600160a01b038116810361085e5790565b9081602091031261085e5751801515810361085e579056fea2646970667358221220dd775ca4dc28fa4c6bd4e9ddf378ce6661f0f57128ef3aa3cba2783c3fbd404664736f6c63430008140033","linkReferences":{}},"methodIdentifiers":{"FEE_DENOMINATOR()":"d73792a9","FUNDING_GOAL()":"42e49d5a","FUNDING_SUPPLY()":"bfe60856","INITIAL_SUPPLY()":"2ff2e9dc","MAX_FEE_PERCENT()":"67d81740","MAX_SUPPLY()":"32cb6b0c","bondingCurve()":"eff1d50e","buy(address)":"f088d547","claimFee()":"99d32fc4","collateral(address)":"a5fdc5de","createToken(string,string,string,string)":"a0769659","fee()":"ddca3f43","feePercent()":"7fd6f15c","owner()":"8da5cb5b","paused()":"5c975abb","renounceOwnership()":"715018a6","sell(address,uint256)":"6c197ff5","setBondingCurve(address)":"43ff1fb8","setFeePercent(uint256)":"7ce3489b","setPaused(bool)":"16c38b3c","tokenImplementation()":"2f3a3d5d","tokens(address)":"e4860339","transferOwnership(address)":"f2fde38b","uniswapV2Factory()":"59d0f713","uniswapV2Router()":"1694505e"},"id":42}